{
	"data": {
		"bytecode": {
			"linkReferences": {},
			"object": "6080604052348015600f57600080fd5b50606180601d6000396000f3fe608060405260043610601c5760003560e01c8063b60d4288146021575b600080fd5b60276029565b005b56fea264697066735822122098747d004acc29d3fb897f9877f21a51c31ac193497b5f542c55f5009d328a0f64736f6c63430008070033",
			"opcodes": "PUSH1 0x80 PUSH1 0x40 MSTORE CALLVALUE DUP1 ISZERO PUSH1 0xF JUMPI PUSH1 0x0 DUP1 REVERT JUMPDEST POP PUSH1 0x61 DUP1 PUSH1 0x1D PUSH1 0x0 CODECOPY PUSH1 0x0 RETURN INVALID PUSH1 0x80 PUSH1 0x40 MSTORE PUSH1 0x4 CALLDATASIZE LT PUSH1 0x1C JUMPI PUSH1 0x0 CALLDATALOAD PUSH1 0xE0 SHR DUP1 PUSH4 0xB60D4288 EQ PUSH1 0x21 JUMPI JUMPDEST PUSH1 0x0 DUP1 REVERT JUMPDEST PUSH1 0x27 PUSH1 0x29 JUMP JUMPDEST STOP JUMPDEST JUMP INVALID LOG2 PUSH5 0x6970667358 0x22 SLT KECCAK256 SWAP9 PUSH21 0x7D004ACC29D3FB897F9877F21A51C31AC193497B5F SLOAD 0x2C SSTORE CREATE2 STOP SWAP14 ORIGIN DUP11 0xF PUSH5 0x736F6C6343 STOP ADDMOD SMOD STOP CALLER "
		},
		"deployedBytecode": {
			"immutableReferences": {},
			"linkReferences": {},
			"object": "608060405260043610601c5760003560e01c8063b60d4288146021575b600080fd5b60276029565b005b56fea264697066735822122098747d004acc29d3fb897f9877f21a51c31ac193497b5f542c55f5009d328a0f64736f6c63430008070033",
			"opcodes": "PUSH1 0x80 PUSH1 0x40 MSTORE PUSH1 0x4 CALLDATASIZE LT PUSH1 0x1C JUMPI PUSH1 0x0 CALLDATALOAD PUSH1 0xE0 SHR DUP1 PUSH4 0xB60D4288 EQ PUSH1 0x21 JUMPI JUMPDEST PUSH1 0x0 DUP1 REVERT JUMPDEST PUSH1 0x27 PUSH1 0x29 JUMP JUMPDEST STOP JUMPDEST JUMP INVALID LOG2 PUSH5 0x6970667358 0x22 SLT KECCAK256 SWAP9 PUSH21 0x7D004ACC29D3FB897F9877F21A51C31AC193497B5F SLOAD 0x2C SSTORE CREATE2 STOP SWAP14 ORIGIN DUP11 0xF PUSH5 0x736F6C6343 STOP ADDMOD SMOD STOP CALLER "
		},
		"gasEstimates": {
			"creation": {
				"codeDepositCost": "19400",
				"executionCost": "75",
				"totalCost": "19475"
			},
			"external": {
				"fund()": "98"
			}
		},
		"methodIdentifiers": {
			"fund()": "b60d4288"
		}
	},
	"abi": [
		{
			"inputs": [],
			"name": "fund",
			"outputs": [],
			"stateMutability": "payable",
			"type": "function"
		}
	]
}